{
  "contractName": "UserList",
  "abi": [
    {
      "inputs": [],
      "stateMutability": "nonpayable",
      "type": "constructor"
    },
    {
      "inputs": [],
      "name": "userCount",
      "outputs": [
        {
          "internalType": "uint256",
          "name": "",
          "type": "uint256"
        }
      ],
      "stateMutability": "view",
      "type": "function",
      "constant": true
    },
    {
      "inputs": [
        {
          "internalType": "uint256",
          "name": "",
          "type": "uint256"
        }
      ],
      "name": "users",
      "outputs": [
        {
          "internalType": "uint256",
          "name": "id",
          "type": "uint256"
        },
        {
          "internalType": "string",
          "name": "walletAddr",
          "type": "string"
        }
      ],
      "stateMutability": "view",
      "type": "function",
      "constant": true
    },
    {
      "inputs": [
        {
          "internalType": "string",
          "name": "_walletAddr",
          "type": "string"
        }
      ],
      "name": "addUser",
      "outputs": [],
      "stateMutability": "nonpayable",
      "type": "function"
    }
  ],
  "bytecode": "0x6080604052600080553480156200001557600080fd5b506200005c6040518060400160405280600a81526020017f30786465616462656566000000000000000000000000000000000000000000008152506200006260201b60201c565b620004ab565b600080815480929190620000769062000107565b919050555060405180604001604052806000548152602001828152506001600080548152602001908152602001600020600082015181600001556020820151816001019081620000c79190620003c4565b5090505050565b7f4e487b7100000000000000000000000000000000000000000000000000000000600052601160045260246000fd5b6000819050919050565b60006200011482620000fd565b91507fffffffffffffffffffffffffffffffffffffffffffffffffffffffffffffffff8203620001495762000148620000ce565b5b600182019050919050565b600081519050919050565b7f4e487b7100000000000000000000000000000000000000000000000000000000600052604160045260246000fd5b7f4e487b7100000000000000000000000000000000000000000000000000000000600052602260045260246000fd5b60006002820490506001821680620001d657607f821691505b602082108103620001ec57620001eb6200018e565b5b50919050565b60008190508160005260206000209050919050565b60006020601f8301049050919050565b600082821b905092915050565b600060088302620002567fffffffffffffffffffffffffffffffffffffffffffffffffffffffffffffffff8262000217565b62000262868362000217565b95508019841693508086168417925050509392505050565b6000819050919050565b6000620002a56200029f6200029984620000fd565b6200027a565b620000fd565b9050919050565b6000819050919050565b620002c18362000284565b620002d9620002d082620002ac565b84845462000224565b825550505050565b600090565b620002f0620002e1565b620002fd818484620002b6565b505050565b5b81811015620003255762000319600082620002e6565b60018101905062000303565b5050565b601f82111562000374576200033e81620001f2565b620003498462000207565b8101602085101562000359578190505b62000371620003688562000207565b83018262000302565b50505b505050565b600082821c905092915050565b6000620003996000198460080262000379565b1980831691505092915050565b6000620003b4838362000386565b9150826002028217905092915050565b620003cf8262000154565b67ffffffffffffffff811115620003eb57620003ea6200015f565b5b620003f78254620001bd565b6200040482828562000329565b600060209050601f8311600181146200043c576000841562000427578287015190505b620004338582620003a6565b865550620004a3565b601f1984166200044c86620001f2565b60005b8281101562000476578489015182556001820191506020850194506020810190506200044f565b8683101562000496578489015162000492601f89168262000386565b8355505b6001600288020188555050505b505050505050565b61083580620004bb6000396000f3fe608060405234801561001057600080fd5b50600436106100415760003560e01c806307973ccf1461004657806318b8275a14610064578063365b98b214610080575b600080fd5b61004e6100b1565b60405161005b91906101e4565b60405180910390f35b61007e60048036038101906100799190610359565b6100b7565b005b61009a600480360381019061009591906103ce565b61011f565b6040516100a892919061047a565b60405180910390f35b60005481565b6000808154809291906100c9906104d9565b919050555060405180604001604052806000548152602001828152506001600080548152602001908152602001600020600082015181600001556020820151816001019081610118919061072d565b5090505050565b600160205280600052604060002060009150905080600001549080600101805461014890610550565b80601f016020809104026020016040519081016040528092919081815260200182805461017490610550565b80156101c15780601f10610196576101008083540402835291602001916101c1565b820191906000526020600020905b8154815290600101906020018083116101a457829003601f168201915b5050505050905082565b6000819050919050565b6101de816101cb565b82525050565b60006020820190506101f960008301846101d5565b92915050565b6000604051905090565b600080fd5b600080fd5b600080fd5b600080fd5b6000601f19601f8301169050919050565b7f4e487b7100000000000000000000000000000000000000000000000000000000600052604160045260246000fd5b6102668261021d565b810181811067ffffffffffffffff821117156102855761028461022e565b5b80604052505050565b60006102986101ff565b90506102a4828261025d565b919050565b600067ffffffffffffffff8211156102c4576102c361022e565b5b6102cd8261021d565b9050602081019050919050565b82818337600083830152505050565b60006102fc6102f7846102a9565b61028e565b90508281526020810184848401111561031857610317610218565b5b6103238482856102da565b509392505050565b600082601f8301126103405761033f610213565b5b81356103508482602086016102e9565b91505092915050565b60006020828403121561036f5761036e610209565b5b600082013567ffffffffffffffff81111561038d5761038c61020e565b5b6103998482850161032b565b91505092915050565b6103ab816101cb565b81146103b657600080fd5b50565b6000813590506103c8816103a2565b92915050565b6000602082840312156103e4576103e3610209565b5b60006103f2848285016103b9565b91505092915050565b600081519050919050565b600082825260208201905092915050565b60005b8381101561043557808201518184015260208101905061041a565b60008484015250505050565b600061044c826103fb565b6104568185610406565b9350610466818560208601610417565b61046f8161021d565b840191505092915050565b600060408201905061048f60008301856101d5565b81810360208301526104a18184610441565b90509392505050565b7f4e487b7100000000000000000000000000000000000000000000000000000000600052601160045260246000fd5b60006104e4826101cb565b91507fffffffffffffffffffffffffffffffffffffffffffffffffffffffffffffffff8203610516576105156104aa565b5b600182019050919050565b7f4e487b7100000000000000000000000000000000000000000000000000000000600052602260045260246000fd5b6000600282049050600182168061056857607f821691505b60208210810361057b5761057a610521565b5b50919050565b60008190508160005260206000209050919050565b60006020601f8301049050919050565b600082821b905092915050565b6000600883026105e37fffffffffffffffffffffffffffffffffffffffffffffffffffffffffffffffff826105a6565b6105ed86836105a6565b95508019841693508086168417925050509392505050565b6000819050919050565b600061062a610625610620846101cb565b610605565b6101cb565b9050919050565b6000819050919050565b6106448361060f565b61065861065082610631565b8484546105b3565b825550505050565b600090565b61066d610660565b61067881848461063b565b505050565b5b8181101561069c57610691600082610665565b60018101905061067e565b5050565b601f8211156106e1576106b281610581565b6106bb84610596565b810160208510156106ca578190505b6106de6106d685610596565b83018261067d565b50505b505050565b600082821c905092915050565b6000610704600019846008026106e6565b1980831691505092915050565b600061071d83836106f3565b9150826002028217905092915050565b610736826103fb565b67ffffffffffffffff81111561074f5761074e61022e565b5b6107598254610550565b6107648282856106a0565b600060209050601f8311600181146107975760008415610785578287015190505b61078f8582610711565b8655506107f7565b601f1984166107a586610581565b60005b828110156107cd578489015182556001820191506020850194506020810190506107a8565b868310156107ea57848901516107e6601f8916826106f3565b8355505b6001600288020188555050505b50505050505056fea2646970667358221220cce48d6c98e0645739c0ffce467a31fd1a235efe527a472f7266608100ce1f1964736f6c63430008110033",
  "immutableReferences": {},
  "source": "// SPDX-License-Identifier: MIT\npragma solidity >=0.4.22 <0.9.0;\n\ncontract UserList {\n    uint256 public userCount = 0;\n\n    struct User {\n        uint256 id;\n        string walletAddr;\n    }\n\n    mapping(uint256 => User) public users;\n\n    constructor() {\n        // add dummy user\n        addUser(\"0xdeadbeef\");\n    }\n\n    function addUser(string memory _walletAddr) public {\n        userCount++;\n        users[userCount] = User(userCount, _walletAddr);\n    }\n}\n",
  "sourcePath": "/home/eetu/Documents/nft_project/block1/contracts/UserList.sol",
  "compiler": {
    "name": "solc",
    "version": "0.8.17+commit.8df45f5f.Emscripten.clang"
  },
  "schemaVersion": "3.4.11",
  "updatedAt": "2023-01-28T21:29:35.457Z",
  "networkType": "ethereum",
  "devdoc": {
    "kind": "dev",
    "methods": {},
    "version": 1
  },
  "userdoc": {
    "kind": "user",
    "methods": {},
    "version": 1
  }
}